:100000000C94730B0C94900B0C94900B0C94900B21
:100010000C94900B0C94900B0C94900B0C94900BF4
:100020000C94900B0C94900B0C94900B0C94900BE4
:100030000C94900B0C94900B0C94E70D0C94900B7B
:100040000C94900B0C94900B0C94E60C0C94900B6D
:100050000C94110D0C94900B0C94900B0C94900B31
:100060000C94DA110C94900B4546476566670020A6
:100070002B2D2E3031323334353637383968003154
:100080002C322C332E0A004869676820706974632B
:10009000682E0A00312C322C332E0A004E6F726DFE
:1000A000616C2070697463682E0A00312C322C3325
:1000B0002E0A004C6F772070697463682E0A005412
:1000C00068697320697A7A7520746573742E0A00E2
:1000D00042757420796F75276C6C206C6F6F6B2084
:1000E00073776565742075706F6E20746865207312
:1000F000656174206F6620612062696379636C6555
:10010000206D61646520666F722074776F2E0A001F
:10011000497420776F6E27742062652061207374A4
:10012000796C697368206D617272696167652C20F2
:10013000492063616E2774206166666F7264206176
:100140002063617272696167652E0A0049276D201C
:1001500068616C66206372617A7920616C6C2066DC
:100160006F7220746865206C6F7665206F662079E9
:100170006F752E0A0044616973792C20446169739C
:10018000792C2067697665206D6520796F757220FE
:10019000616E7377657220646F2E0A004D6F7574FF
:1001A000682C204172647765656E6F2073686565A1
:1001B000796C642E0A00596F7520617265206C6934
:1001C00073736E696E6720746F20746865204D616B
:1001D000646769636B0A004C61796465657A2061C4
:1001E0006E64206A656E6E74756C6D656E2E0A00A5
:1001F00000001A0035004F006A0085009F00BA0019
:10020000D400EF000A0124013F01590174018F015C
:100210004B02006E000247003500024400060F0347
:100220004F02006E000448003500044400040C0333
:100230005302016F00028800360002800006F702B8
:100240005702016F00048A00360004800004FA029D
:100250005B0202700002B300370002B00006FD022C
:100260005F0202700004B400370004B00004090308
:100270006302460045000000023388440001440048
:100280000245000800000110026E00013500010067
:100290000000000100000100000100006E02840067
:1002A0008100FF0002FFDF80000180000281000862
:1002B00081001030026F000136000186006F0020BF
:1002C000360020810040F4027902B200B10000FF44
:1002D000023388B00001B00002B1000800000150F4
:1002E0000270000137000100000000010000010061
:1002F0000001000014030114030214030414030892
:100300001403201A03011A03021A03081A03201AFD
:10031000034088132500240023002B002A00290015
:1003200000040A01040A02040A03040A040408057A
:10033000040C0604080704010804010904010A0466
:10034000060B03000C050C0D06000E050C0F050C2A
:1003500010050C11040612040613040614040615F5
:10036000000016050C1704041804081904061A04E2
:100370000A1B06001C050C1D06001E06001F0200BD
:1003800020040A210600220100230406240000257F
:10039000040826040820040A20040A74FFFF04301D
:1003A000FBCF8888784595CD6A4485AA68657688AC
:1003B0008888685586A98A566587A8CB8A5685BAE3
:1003C0008A78878888886655768856546566565533
:1003D000445466565565565486464496EEFFED44A1
:1003E0001052D9EFBD584566868877A8BA9B484415
:1003F00053A7CBAB6855658799898888A999887870
:1004000098A99978668798886866768888786766F4
:1004100066666666767766676787776696B8FFCBA7
:10042000FB9A85737858BA9D99898844645886A93F
:10043000AA88865854768788999A788867668688C5
:100440009ACAAAA888867688898889676665656554
:10045000666666565555554477682B4475EAFFAC79
:10046000DAEE5A3265565576BACD8B8799482253C3
:10047000776697AAAB8A6676574475988898AABB20
:10048000AB8987885675888888886856555555552C
:1004900055665666565555446566554454555576C9
:1004A000B9FDFFFFEEDECDAB6845233244445576FF
:1004B000A9BABBABAA9A8968554444546566879823
:1004C000A9AAAA9AA9AAAA9A898888888866555545
:1004D00055554544545555454444545565666787BC
:1004E000B9ECFFFFCF8A24013175DAFEFFCE8A56C0
:1004F0004454658899AAAABBBBAA8957455475A8D4
:10050000CBDDDDBC9A6856556587A9BBBB9A88666A
:100510005555668798999988675655354307E1A4DC
:1005200079BDE8FDDACFDBFB9AAB689645542552DE
:100530004454566587769A98AA99AA89A9898868A1
:1005400086686567857779A987AAAA9AA99888880D
:100550006766555555545544455434555575A8DB73
:10056000FEEFBE8B685554545555668799AAABAAC1
:100570008966555555657687889999999A99999874
:1005800088886867677776666666666666666666A2
:100590006666666666666666666655556666769AD9
:1005A000A6BBCBBBDEEDDDDDBCBCBA9A9978686634
:1005B0005655555555556665667677888888989955
:1005C000AAAAAABABAABAAAA998988686655554454
:1005D00044444444444444544555653243344344BC
:1005E00055556576B9A89ABBCDDDDDEEEDDDDCBBFA
:1005F000AB99898866565545445455555565668767
:1006000088889999AAAABAABBBABBBBBAA9A8988BE
:10061000786656554444343333344355D7FFBF4985
:1006200033676889A9DD8B242295AA9A8999583461
:1006300054A7BB8A6866666597BAAB685576988991
:10064000988868567588896866666666768867568B
:10065000557667766677666656666799999978776C
:10066000776766777777989999A9AA99999978770A
:10067000776766777777989999A9AA89999999AAB6
:100680009A9999897777776676777787999999AAEA
:100690009A99998977777766767777868898888820
:1006A0008899898888889988889899888888888886
:1006B00088888888888878888777778888778788FF
:1006C00088776666665655555566B8FEFFCE9A8998
:1006D0004824012055665655552400888868867838
:1006E00097898876768889998868568799A98966CE
:1006F0005676888889787788889988685575A99A00
:100700008968556686A99A88568688886875779814
:10071000AA9889585566B9AB8A5865967878B9B859
:1007200078897665784B87758BB576A8A9445D493D
:100730008B8395781A6C7AC2B4557B85A878988596
:1007400087C485853BB84778A4946887667A7A8998
:1007500067C8A6837BC5C1B49887B3889999A9DA7D
:10076000BCEDCDBBCCDCFDFFFFFFFFFFFFFFFFFFBC
:10077000FFFFFFFFFF8C04000000000000000000EE
:1007800000103245130000000000000000000000CF
:100790000010111011113254557676995865884819
:1007A000A3AB76C94A21846944C74A52A94872ED6D
:1007B0008B78552432F4CF10FB4F549868748856C8
:1007C0008589568778769899998968766765987843
:1007D0004454B8AB69557688566598445576B9DC6B
:1007E000FEFFDECDAB9A885645232243548698A956
:1007F000AA9A999989885645445455667687889867
:100800009999A999AAAAAA9A897866666666565598
:10081000555566666656555555555545B6FFA5FB63
:100820006A84955673D969B88C56666744A68A96C9
:10083000AA68657646759988A98A677667659788F4
:10084000C99AA9A959658955988867664654665515
:1008500086567656555665458758755595545C8726
:10086000A9A8ADBBBD9D9FABAB8A8B88884647448A
:10087000554455546555878697889998A9999A98AB
:1008800099989A9999988A888878686656554554AF
:100890004454445554554445645447A458D51FD72F
:1008A0008FD58FA58884349534B65AB76C898987DB
:1008B0005567448758998999998886886588988961
:1008C000AB9BB989865865555455676688668755C8
:1008D0005664467546845975897467766667667787
:1008E00087778988898989A8999AA99ABA9A9AA9A9
:1008F0008989887987776766677676677777889753
:10090000899999AAA99AAAA99A99899987787767BA
:1009100077766667667787778988893AFB986CA9C6
:10092000A55A89A85867675555665676887686878A
:1009300054554755856566888AA8AA899889678825
:100940008998BAABBABCABAAAA788778668688873A
:10095000988877785655564454454444A6AABBCB4C
:10096000BDBDABAABA9A89888888666666666787BD
:1009700078888888877777777788888899AAAAAAD5
:10098000AA9999998888666655555555555555556E
:1009900055555555655655555555456666F7FF9E4F
:1009A0005B7488565475DBBD884675584565B7CB72
:1009B0008A685676565487BAAB787766665696DA62
:1009C000BD8B5675677676989A88666577665666A3
:1009D000876655656656656677886795DBFFFF4ACB
:1009E000020073FBFFAF48234275889998AAAA6852
:1009F000252253B8EDBD69243275A9AB9A8888A920
:100A000089676687898969676666665566867866D6
:100A1000555555666666666666564567D7FFABCB25
:100A2000AC892652875686BACB8B76884844557651
:100A30008988B9AB88676666457598999999BA8A25
:100A40008788787776988987887866556566656639
:100A500066665665565565566666668B43973B9344
:100A60004C553F745958C803C726C318777A34C900
:100A700082A12B812D76A838787AE048A683473B5F
:100A8000A53A853B98648956B88883678727770D90
:100A9000735E72CC70D84447599858768788989975
:100AA000AAAAAAAA99898888776666554541B7DCBB
:100AB000BE99B9BB8A454354552442657656546560
:100AC000776686CBEDCEBBBAAB99686566768677DE
:100AD000878889887899999998999AB6755A4B997F
:100AE000B5585B89A6966888A6784A8BA5A54A4B17
:100AF000B7B47A4C87C3782C4BC5A43A5B999588D8
:100B000049B7B4688AA7B5784C9AA5785A87B5785A
:100B10005C6BA6785AA7B3582D89D565666A66A717
:100B200098666A66A7A6676668A66A67A7986666F3
:100B3000A79AA586667768A69A596689A78965687F
:100B400086A676688666AA68666A7686767A66A6D5
:100B50006A7A66A68A767A8A956AA6898989A89920
:100B60009AA99ABA9A9AA9898988798777676667CC
:100B700076766777778897899999AAA99AAAA99A80
:100B800099899987787767777666676677877789AF
:100B900088898989A8999AA99ABA9A888888888818
:100BA00088888888888888888888888888888888C5
:100BB00088888888888888888888888888888888B5
:100BC00088888888888888888888888888888888A5
:100BD00088888888888888888888888888878879A5
:100BE00086887686866666767898888A99888979EE
:100BF0007A8A9989A898986888897978788886887F
:100C00006768878785677A888A8B9AA999A998A93E
:100C1000A9A898A896867676787666679899A9AAFC
:100C20009AAA898878677667768788999AA9AA990F
:100C300099897777667677778888A9AAA9AA898813
:100C4000787777667677879999A9AA999A89887724
:100C500066879999AAAAA99A888877D6FCCD9C8894
:100C600088564476BAAB998978564465989999998B
:100C700089564564878898999968556586A9BBAB5C
:100C80008A685666878888785655555565666656CB
:100C900066555556456587886655559889AA99AA17
:100CA000898967776677768897A9A9AB99998778B4
:100CB000766776779789A99AB999997888667666DA
:100CC0008788A999AA999A88887667667786889886
:100CD0009889AA99AA8989677766775587F48F9545
:100CE0008F23678675FB79B829537666B89C788818
:100CF00045658797AA898756557688998A68665583
:100D000076AB98BA5865567699898868556666981C
:100D100088776655566666865787562132444464FE
:100D200086AA9A77B9FDFFCDBACBCB8A5565A7AA1B
:100D30008998B9CCAB68668878575597BAAB9A99B9
:100D4000AA9A6866869899DBFDFFDFAB89886855AB
:100D50005576887856666656342232204572726F10
:100D6000723A25640D0A0055736572005765626218
:100D70006F744C696200FB13B114CD148614B8145F
:100D80009C144E6F20746F6B656E20666F7220002E
:100D90004349455459D34959324548544545004F74
:100DA00055535FAF55355300492359C9592345451C
:100DB000002023455245A023454535455200475460
:100DC000485FD448004E474552CE584745520041EF
:100DD00047455FC1594A004F2355CF57352300413E
:100DE000554748C1413546004B4ECE002345595F1B
:100DF000A345455900204F55474854A0414F34540E
:100E0000005843CB53005953C94834530020234F53
:100E10005547485FA023414846004552595FC548A1
:100E200034524545004F5547485FCF48355700532A
:100E30004349D349590043484ECB4E004F4759CF01
:100E40004A45450049524FC959524F004349D34979
:100E50004800544348C3480047484F5449C649488E
:100E60003453480055455FD5573600205945535FE8
:100E7000A05945483553004755455FC70055524571
:100E80005FD5483552005559C95935004F55474827
:100E9000C1480020234945A0234959004F4C455FD4
:100EA000CF57344C002041424C45A0415935424C6B
:100EB0000041424C45C148422F554C004959C9593F
:100EC0000041494748C15900434852CB5200495458
:100ED0004C45C959542F554C00412349C15935231C
:100EE000005348414C4CD34841454C00415245C108
:100EF00049355200415FC148004F45CF5735004149
:100F00004E47455FC159344E4A00414E4745C1598D
:100F1000344E4A2F55002F55AF550020474554A059
:100F20004745485400494544C159354400414C4C5B
:100F300059C145344C454500412341C15923005214
:100F4000454154D24159355400434F4D455FCB4143
:100F5000484D004F554C445FD54835440020414E24
:100F600059A04548344E4545004F234FCF573423B1
:100F7000004F2341CF57342300412345C159362325
:100F800000492345C95935230041234FC159230046
:100F90004F2345CF57352300552345C9485557356D
:100FA0002300552341D55857230054552345C348A2
:100FB0005557230020552345A0595558572300491C
:100FC00045C54500552349D955585723004F4F4B28
:100FD000D548354B00434F57CB4157004E47535FE1
:100FE000CE585A005354494F4ED32543482F554E9F
:100FF00000474F4FC755483400484F57AF484157F7
:1010000034004E4F57CE415700504F57D0415735BF
:1010100000455252C548345200444F57C4415734DA
:10102000005345535FD349585A0050524F47D0524E
:101030004F573447004E4745CE4A00444F5FC45592
:10104000483457004F55C14534555800204F55522C
:10105000A041573552004F5552C14F355200204FD5
:101060004E45A0574F344E004155C14F35004F49B2
:1010700043CF5953004F5FCF5700415649C15934B0
:101080005649580045535FD300554C4CD548354C14
:10109000005548D54800464F4F54C6554834540073
:1010A000554C5FAF554C004546554C5FC62F554CCF
:1010B00000454153455FC5455A004447CA004F416A
:1010C000CF4835570047454ECA4548354E004C4538
:1010D0005FAF554C00595045C959345000544C45E8
:1010E000D44C00494749C958344A49480057484FE9
:1010F000AF48554857004E494F4ECE49582F554E90
:10110000005741535FD74F5A004F52455FC14F348C
:10111000520020544F5FA05455583500414C4BC1EC
:101120004F524B002042455FA0424545350054498F
:101130004FD34841480059455FC959004152C14108
:1011400035004146C141344600415354C1413653F4
:101150005400455FA50047484FC74F4834570041EA
:101160005A59C159355A454500574841D74F35005E
:10117000574154D7414F365400414C4CC14F344C29
:1011800000204F465FA04F3556005353D3004646CC
:10119000C60043455FD3004345D345483400544916
:1011A00041D34849582F550020415FA04159004D77
:1011B000425FCD00412359C1494958234545005458
:1011C00048455FC4482F552500204152455FA04146
:1011D00041355200595FC5450053494FDA482F55F4
:1011E0000020495FA0495936004F57CF570041575B
:1011F000C157005748D70054D40020574F52A0572A
:10120000455235005752D20049534DC958355A2FCF
:10121000554D00204D455FA04D4545350047C70061
:1012200044C40050D00042C200574F4FD755480029
:10123000204749A04A495900594F555FD955570091
:101240004149C1593400494748C95934004952C538
:1012500052360055414CD92F554C004557C9485579
:1012600057005552C552355200204D595FA04D4987
:10127000590041C1450049C948004BCB0043CB0050
:1012800057D70046C6005A5ADA004F5249C14F524A
:101290004958340053D3005ADA0056D6004CCC00DB
:1012A00059D90052D2004DCD004ECE0055C1480054
:1012B0004FCF004ACA0048AF48005048C6004555C5
:1012C000C948554834004F4FD558004545C54536A7
:1012D000004D4DCD004E4ECE00414952C149520005
:1012E000455245C14952004552C552004F52C14F67
:1012F00052004C4CCC00434BCB0045C548005448F1
:10130000D448005454D4004448C448004E475FCEEB
:1013100058004E47CE5847005155CB57005348D33D
:1013200048005A48DA48004F48CF480058CB53008D
:101330004348C348005050D0004159C1590020498A
:10134000535FA04958365A00205343A053004F4FD3
:1013500052C14F3552005252D2004F49CF59350039
:101360004F59CF59002041535FA041455A002057A3
:101370004954485FA05749583544480048455FAF35
:10138000484545360020484156455FA02F48414515
:10139000355600204259A04249593300205448494B
:1013A00053A04448495853002057455FA05745452E
:1013B000350020544845595FA04448415934002025
:1013C0004841535FA02F4841455A002054484549A1
:1013D000525FA0444841493452004444C400205460
:1013E00048414E5FA044484145364E004242C2004B
:1013F0004747C700204F4E4C595FA04F57354E4CC2
:101400004545002050454FA05045453400205348E5
:10141000455FA05348454535004F54484552C148A3
:10142000444845520020534149445FA05341493646
:10143000440051CB0020534F4D45A0534148354DFA
:1014400000205448454E5FA044484548354E004171
:10145000525FC141355200204D4F53545FA04D4F54
:101460005734535400415252C145355200555252DF
:10147000C14852004F5252CF5200504C59D04C49A3
:1014800059004559C159004541C54535005343529E
:10149000D34B52003AAE003BBF002DAF0020A0005E
:1014A0002CAC002EAE003FBF0027AC0021AC002FBB
:1014B000AC0049474E5FC9594E250030DA494835DE
:1014C00052344F570031D74F354E0032D45548343F
:1014D000570033D448524545350034C6414F355244
:1014E0000035C6495935560036D34948364B530066
:1014F00037D3454835562F554E0038C1593554001D
:1015000039CE4959354E0020425FA042454535004D
:1015100020435FA0534545350020465FA04548461F
:101520000020485FA04159434800204A5FA04A413B
:10153000590020525FA04141355200204D5FA04527
:10154000484D00204E5FA045484E0000647578E18C
:101550003556324538006165C137006161C23900D6
:101560006177C13952360072C437007578C53800CA
:101570007577C537523600616FC639006565C73764
:10158000006CC837006DCA37006168CB370076CC75
:1015900035002F68CE340074CF310070D031006E2A
:1015A000C9370062CD31006BD1310077D23700618D
:1015B00079D339553554320079D437006968D53735
:1015C000006978D535006AE133563361320064D75B
:1015D00031006E78D837006F68D938006FDA38007C
:1015E0006572DB39007368DC36006F77D9395235A4
:1015F000006F79C63955345432006368E1365C3384
:1016000061310067DD310073DE350066DF35007A59
:10161000E035002FE139007468E235006468E33496
:10162000002F75E438007A68E535006472E13256BF
:10163000334437007472E13456334437006374E145
:1016400032513161314F31006568E637007568E726
:1016500037006979C2395536006169C3390025E11F
:1016600031006A5FE13456330020FA7A002CE13908
:101670006132002EE9396135003FE83961350000FB
:101680003131313130313131313030313031303050
:101690003030303031303131303030313131303143
:1016A0003131303031303131303130303030313132
:1016B000313130303130303001020406080A0D106B
:1016C0004C696E6520746F6F206C6F6E670A004DF9
:1016D000697374616B6520696E20737065656368FA
:1016E00020617420000011241FBECFEFD8E0DEBFC0
:1016F000CDBF11E0A0E0B1E0EEE8F7E302C0059055
:101700000D92A63AB107D9F714E0A6EAB1E001C0FC
:101710001D92AC34B107E1F70E940C130C94711ABE
:101720000C940000089560E070E080E090E008957F
:1017300088EA9BE00E94A51182E99BE00E94AD111E
:1017400060E070E080E090E008950E94AF0C0895A2
:101750009F92AF92BF92CF92DF92EF92FF920F9340
:101760001F93DF93CF930F92CDB7DEB78C017E012D
:101770000894E11CF11C38E0A32E24E0922ECC2426
:10178000C39492E0B92E85E0D82EB0C08091A60116
:10179000823009F447C0833030F4882359F0813017
:1017A00009F0A2C035C0843009F48AC0853009F040
:1017B0009BC08AC08981823541F1833530F48434FD
:1017C00071F0803509F092C01DC0883559F08A3516
:1017D000B1F0833509F08AC0C092A60187C0B092EB
:1017E000A60184C083E08093A6018AE10E9483134E
:1017F000C8010E94B210F8011782168275C090923B
:10180000A60174C0D092A60171C0A092A60156C0D4
:1018100089818A3021F48AE00E94831365C00E9486
:10182000831364C08981813381F08233F9F080337E
:1018300009F05AC087ED91E00E94991386EB91E080
:101840000E9499138CE991E00EC085E791E00E9417
:1018500099138CE491E00E94991380E191E00E9439
:10186000991380ED90E00E9499133EC087E00E949A
:101870004B0E8FEB90E00E9499138AE00E944B0E72
:1018800083EB90E00E9499138BEA90E00E949913F9
:1018900087E00E944B0E8CE990E00E94991384E946
:1018A00090E00E94991383E00E944B0E87E890E03D
:1018B0000E9499138FE790E00E94991387E012C06D
:1018C00089818A3599F410C09981892F80538A3093
:1018D00048F0892F8154863020F0892F8156863038
:1018E00018F4865F0E944B0E1092A601C801B70142
:1018F0000E94CC10882309F049CF0F90CF91DF913F
:101900001F910F91FF90EF90DF90CF90BF90AF901D
:101910009F900895E82FF0E0EE0FFF1FE051FE4F7B
:101920008591949190938B0080938A00089560E054
:101930000E94C312E0E8F0E0808180628083089515
:10194000FB010484F585E02D309719F42FEF3FEF6C
:1019500002C009959C01C9010895089508950F9347
:101960001F938EE96FEF4EE351E02AE431E00E94CD
:10197000B5110CE31DE0C8010E943D1186E591E020
:1019800090934B0480934A04109363010093620187
:1019900089E091E040E05BE460E070E00E94B51314
:1019A0008AEF92E00E94970C06E910E1C8010E94BC
:1019B000761384E691E09093490480934804109351
:1019C0007101009370011F910F9108951F920F9262
:1019D0000FB60F9211242F933F934F935F936F9302
:1019E0007F938F939F93AF93BF93EF93FF93E09178
:1019F0003501F0913601608189E091E00E94E9149F
:101A0000FF91EF91BF91AF919F918F917F916F91D6
:101A10005F914F913F912F910F900FBE0F901F90AC
:101A200018951F920F920FB60F9211242F933F9388
:101A30004F935F936F937F938F939F93AF93BF93D6
:101A4000EF93FF9389E091E00E949415FF91EF914D
:101A5000BF91AF919F918F917F916F915F914F91C6
:101A60003F912F910F900FBE0F901F90189589E016
:101A700091E00E9403150895682F89E091E00E948B
:101A80008A1590E0089520E732E0F901A591B4911C
:101A900084E01A968C931A9784B5826084BD8AEF8D
:101AA00087BD80E094E08D939C9385B5856085BD6E
:101AB000245D3F4FF901A591B49188E01A968C936B
:101AC0001A97E1E8F0E080818061808380E991E00D
:101AD000909387008093860081E090E08D939C93A3
:101AE0008081816080830895FC016FB7F89486B58A
:101AF00020914702309148024091490250914A0298
:101B0000208331834283538326B530E03583248399
:101B100090E02817390710F0A99B0FC080819181B0
:101B2000A281B3818058914CAF4FBF4F8083918386
:101B3000A283B38386B5848315826FBF0895EF9225
:101B4000FF920F931F93FC01E080F18002811381CB
:101B50006481758180E090E020E83EE340E050E061
:101B60000E94261B2AEF30E040E050E00E946C1BF0
:101B70002E0D3F1D401F511FB901CA011F910F912A
:101B8000FF90EF9008950F931F93DF93CF9300D0B2
:101B900000D000D0CDB7DEB78E010F5F1F4FC80158
:101BA0000E94740DC8010E949F0D26960FB6F894EE
:101BB000DEBF0FBECDBFCF91DF911F910F91089572
:101BC000A99AEEE6F0E080818260808308951F92FA
:101BD0000F920FB60F9211248F939F93AF93BF93E1
:101BE0008091470290914802A0914902B0914A0227
:101BF0008058914CAF4FBF4F80934702909348025B
:101C0000A0934902B0934A02BF91AF919F918F91E7
:101C10000F900FBE0F901F9018953091000140E07B
:101C20000FC0242F2A95F1F791509923D1F7932FC4
:101C300004C0242F2A95F1F791509923D1F78150B0
:101C4000882311F0932FF1CF089580918402982F6B
:101C5000990F909384022091850227FF03C09F5F14
:101C600090938402922F990F90938502209186027F
:101C700027FF03C09F5F90938502922F990F909347
:101C800086028874885C86FF03C09F5F90938602FB
:101C90008091840208958093730108958091730167
:101CA0000895AF92BF92CF92DF92EF92FF920F937F
:101CB0001F93CF93DF93C62EA42EB22EF02E1E2D8F
:101CC000C82FD0E096E0CC0FDD1F9A95E1F7C556FE
:101CD000DC4FD62E1F7025C08D2D8F73FE01E80FAF
:101CE000F11DE490812F8E210E948A0C80910001C9
:101CF00004C09A2D9A95F1F781508823D1F7E29488
:101D00008FE0E822812F8E210E948A0C80910001B1
:101D100004C09B2D9A95F1F781508823D1F7D39475
:101D200001500023C9F6FC0C8F2D8F73DF91CF91EA
:101D30001F910F91FF90EF90DF90CF90BF90AF90E9
:101D40000895EF92FF920F931F93182FF62E0CC059
:101D50000E94250E682F8F2D47E027E00AE03FE024
:101D6000E32E0E94510E1150112391F71F910F91F4
:101D7000FF90EF9008952F923F924F925F926F9253
:101D80007F928F929F92AF92BF92CF92DF92EF920B
:101D9000FF920F931F93DF93CF9300D0CDB7DEB7A1
:101DA0001C012B0188E00E948A0C8CEE8093840237
:101DB00087E0809385028FEC8093860266249924C5
:101DC00053C1EA3721F48FE00E940D0E02C0E332C6
:101DD00011F424E02EC123E0E29FF0011124E35A24
:101DE000FD4F84918A833196A4903196D490DA0184
:101DF0001196F101EA0FFB1F80818053813009F0B9
:101E0000880FF201E40FF51FE080A40DB51D9C9131
:101E1000992361F0AFEFEA1649F0903359F0E6E00C
:101E2000CE2EC80EB6E0CB1631F404C0C82E7AE030
:101E3000E72E01C0C82E8A010E5F1F4FF201E00F8E
:101E4000F11FF080440D551DFA018381882319F09C
:101E5000FFEFFF1611F46AE0F62E23E02A1528F0B2
:101E60000E94250E52E2B52E27C086E0A816E1F4A6
:101E7000C81611F011E001C01FE0FC2CFF0CFF0C94
:101E80000FC00E94250E682F8A8148E02CE001E1F6
:101E9000E12E0E94510E1F5F103109F41FE0FA94E9
:101EA000FF2079F726E0C5C095E0A91619F489E16D
:101EB0000E940D0E40E2B42E20917301290D822E56
:101EC0008E0C181414F088248394722E7F0C17142F
:101ED00014F077247394020D131DD8012C91222342
:101EE00011F02A3739F4B1E0CB1671F58CE30E947A
:101EF0000D0E2AC0E1E0DE1619F4DD24D39413C0E0
:101F0000822F90E081549040FC01EE0FFF1FE80FFC
:101F1000F91FEE5DFC4FE4918D2D90E08E0F911D29
:101F200095958795D82EF3E0FA1570F4822F90E0FE
:101F300081549040FC01EE0FFF1FE80FF91FEF5D89
:101F4000FC4FE491E43009F021E6822F90E08154C7
:101F50009040FC01EE0FFF1FE80FF91FE05EFC4F01
:101F6000249129838A81281709F4DC2C8D2D8695EC
:101F700021F4FF24FA94992414C090E080589F4FD4
:101F80006D2D70E00E94591B962E91E0C91639F410
:101F9000A0E4BA2EFCE08F2EFF24FA9402C0E0E801
:101FA000FE2EEE248F2D86958695182FB81608F4F0
:101FB0001B2D882351F08A816E2D482D282D012F4D
:101FC0007FE0E72E0E94510EE82EA0E4BA1659F0E9
:101FD0000B2D011B89816E2D472D272D5FE0E52EEE
:101FE0000E94510EE82EBFEFFB1639F0CD1428F4F5
:101FF0008F2D9F1408F4892DF81AE3E0AE1619F41A
:1020000083E06EE110C0F2E0AF1619F483E06DE1F9
:102010000AC021E0A21619F483E061E204C0AA20FC
:1020200021F483E06BE10E94A10ECA9409F0BACFBB
:102030002A2DE62DF0E03C96E20DF31D992480E078
:102040009081993611F4982E04C0983611F4982E88
:10205000919432978F5F863099F7253019F489E192
:102060000E940D0E82E0680E462D50E0F101E40F53
:10207000F51FE081EE2309F0A4CE88E00E948A0CCF
:102080000F900F90CF91DF911F910F91FF90EF90E4
:10209000DF90CF90BF90AF909F908F907F906F9088
:1020A0005F904F903F902F900895E0918401F091C0
:1020B0008501309779F0E957FD4F108287E892E06B
:1020C0000E94BD1580E891E00E94B2101092870135
:1020D0001092860108950F931F93DF93CF930F9271
:1020E000CDB7DEB7009178011091790180E891E0D9
:1020F0000E94BB100817190748F00E94551006C02F
:1021000080E891E069810E94141103C08E010F5F85
:102110001F4F84E791E0B8010E94CC10882381F71B
:102120000F90CF91DF911F910F9108951F93182F5A
:10213000813230F084E791E00E940C11882349F04D
:102140000E946B10103228F40E946B100E945510F0
:1021500005C084E791E0612F0E941411812F90E067
:102160001F910895FC01009729F08FB7F89415820C
:1021700014828FBF0895FC014FB7F894009719F4AB
:1021800020E030E006C02281338184819581281BC4
:10219000390B4FBFC9010895CF93DF93DC01EB01E9
:1021A0004FB7F894009799F112968D919C911397DF
:1021B000892B69F114968D919C911597892B39F192
:1021C00016962D913C911797ED91FC911197E20F86
:1021D000F31F808188832F5F3F4F17963C932E9388
:1021E000169712968D919C9113972817390721F411
:1021F00017961C921E92169714968D919C91159786
:10220000019715969C938E9314978FEF01C080E0F1
:102210004FBFDF91CF9108950E94BB10892B11F021
:1022200080E008958FEF08951F93CF93DF93EC0123
:10223000462F1FB7F8942C813D816A817B81261738
:10224000370710F080E011C08E819F81820F931FAD
:102250000E94451BE881F981E80FF91F40838C81BA
:102260009D8101969D838C838FEF1FBFDF91CF915E
:102270001F91089580913D040895909341048093A7
:10228000400408951F93182F80913D04882309F07E
:102290005AC010933D0480914204909143040097EA
:1022A00049F00E94AE12882329F082E494E060E0B5
:1022B0000E94EA1280914A0490914B04009709F41D
:1022C00042C017FF12C000D000D0ADB7BEB7129603
:1022D0009C938E9311978CE69DE014969C938E931D
:1022E00013970E947F1A11950CC000D000D0EDB753
:1022F000FEB79283818387E69DE0948383830E9467
:102300007F1A00D0EDB7FEB7319680914A049091C4
:102310004B04ADB7BEB712969C938E9311978BE585
:102320009DE093838283812F992787FD90959583E4
:1023300084830E947F1AEDB7FEB736960FB6F894E5
:10234000FEBF0FBEEDBF1F9108952FB7F894909375
:10235000DC028093DB022FBF08952FB7F89490938F
:10236000DE028093DD022FBF0895982F3D983C98A0
:102370005093D8024093D7023093DA022093D902C7
:102380008091BC0084608093BC00109245048091D1
:10239000BC0081608093BC008091BC00806480930D
:1023A000BC0080E0611181E09E7F892B8093BA00A0
:1023B000789408951F920F920FB60F9211242F93C5
:1023C0003F934F935F936F937F938F939F93AF93BD
:1023D000BF93EF93FF93DF93CF930F92CDB7DEB709
:1023E0008091B900887F8039C1F18139A8F48037A4
:1023F00051F1813740F4803631F1883621F188235C
:1024000009F490C097C0803841F1883809F47EC043
:10241000883709F08FC017C0803B09F444C0813B66
:1024200040F4803A51F1883AF1F1883909F082C0DC
:102430006DC0803C09F471C0883C09F46EC0883BD3
:1024400009F078C04AC085E0809345048091D702A6
:102450009091D8020E94B21054C06091BB0080914C
:10246000D7029091D802009709F450C069830E9466
:102470001411882309F44AC044C08091BC008F70B5
:10248000806C8093BC00E091DB02F091DC0230971D
:1024900009F44EC08091D7029091D802009709F4B8
:1024A00047C0099545C084E0809345048091DD02D2
:1024B0009091DE02892B89F08091D9029091DA0205
:1024C000009759F00E94B210E091DD02F091DE0217
:1024D0008091D9029091DA0209958091D902909168
:1024E000DA02BE016F5F7F4F0E94CC10898180931A
:1024F000BB008091D9029091DA020E94ED16892BDF
:1025000029F08091BC008F70806C04C08091BC0069
:102510008F7080688093BC000DC08091BC008F706C
:10252000806C04C08091BC008F70806D8093BC0073
:10253000109245040F90CF91DF91FF91EF91BF91E1
:10254000AF919F918F917F916F915F914F913F914B
:102550002F910F900FBE0F901F9018959C01009720
:1025600081F0FC01859194910296FC01A591B491B2
:102570002E5F3F4FF90194918C91892311F08FEFD9
:10258000089580E00895CF93DF939C010097F9F0C0
:10259000FC0145915491CA010296FC01C591D49168
:1025A000FA01A591B4912E5F3F4FF90124913FB7F5
:1025B000F894662319F08C91822B04C08C91922F91
:1025C000909589238C938881822B88833FBFDF91EC
:1025D000CF9108951F93CF93DF93EC01162F88813D
:1025E00099810097A9F03A8130FD05C020E066236B
:1025F00009F421E0122F31FD06C0612F0E94C312A1
:102600008A8182608A8388819981612F0E947717ED
:10261000DF91CF911F9108950E94AE0C0E94430D4F
:102620000E94E00D78940E94AD0C0E94A50B0E94C0
:10263000C30D6093E3027093E4028093E5029093EC
:10264000E6020E94980B6093E7027093E802809381
:10265000E9029093EA0278940E9445178091E7027C
:102660009091E802A091E902B091EA020097A105D9
:10267000B10519F416C00E9445176091E3027091EC
:10268000E4028091E5029091E6022091E702309108
:10269000E8024091E9025091EA020E94FA1688236A
:1026A00051F30E94C30D9B01AC016093E302709350
:1026B000E4028093E5029093E6026091DF0270915C
:1026C000E0028091E1029091E2026F5F7F4F8F4FB5
:1026D0009F4F6093DF027093E0028093E10290933A
:1026E000E2020E94930BAFCF90E008954FB7F894A9
:1026F00020918C0130918D0190938D0180938C01FC
:102700004FBFC90108951F93182F8A3031F4E0910B
:102710008C01F0918D018DE00995E0918C01F09193
:102720008D01812F09951F9108958AE00E948313DE
:102730000895CF93DF93EC01009719F407C00E942E
:102740008313FE01219684918823C9F7DF91CF91ED
:102750000895DC0119968D919C911A97FC012591A1
:102760003491CD01F90109950895DF92EF92FF921E
:102770000F931F93CF93DF93EC017A018B01DFB6A8
:10278000F8942D853E858F8598892817390711F093
:1027900080E001C08FEF8F8B882381F02D853E85EF
:1027A0008F8598892817390721F0C90160E00E94B8
:1027B00050178F8598896FEF0E9450178885816028
:1027C000888788858B7F888788858D7F888789859E
:1027D0009A850496FC0125913491CE01B801A70198
:1027E000F9010995DFBEDF91CF911F910F91FF9005
:1027F000EF90DF900895BF92CF92DF92EF92FF9219
:102800000F931F93CF93DF937A018B01EC01BFB637
:10281000F8944F3F8FEF58078FEF68078FEF7807D7
:1028200021F4A1E0CA2ED12C24C0CB01BA01F3E0DF
:10283000660F771F881F991FFA95D1F72091010124
:10284000309102014091030150910401620F731F06
:10285000841F951FA8019701E4E0220F331F441F36
:10286000551FEA95D1F70E946C1B69010894C108B5
:10287000D10898A99923C9F1ECA1FDA18081909577
:10288000892380838FEFE8168FEFF8068FEF080714
:102890008FEF180719F421E030E01DC032E0EE0C94
:1028A000FF1C001F111F3A95D1F760910101709133
:1028B000020180910301909104016E0D7F1D801F24
:1028C000911FEE0CFF1C001F111FA80197010E9411
:1028D0006C1B215030402C153D0538F0ECA1FDA1BA
:1028E000808198A9892B80836901E8A5F9A5C08218
:1028F000EAA5FBA5D082BFBEDF91CF911F910F91BA
:10290000FF90EF90DF90CF90BF900895DC019696F6
:10291000ED91FC919797808187728083D0969C91EE
:10292000D097992341F09496ED91FC9195978081F1
:102930009095892380830895DC0157968C91579751
:10294000882371F09696ED91FC9197978081877B13
:1029500080839696ED91FC91979780818069808322
:102960000895DC019C96ED91FC919D9760830895FC
:10297000DC0157968C915797882371F09696ED91CC
:10298000FC91979780818F7680839696ED91FC914C
:1029900097978081886480830895CF93DF93EC01BB
:1029A0000E94A9138F89882311F020E90CC08D851E
:1029B0009E85892B11F020E901C020E08F85988940
:1029C000892B09F02864EEA1FFA12083DF91CF912C
:1029D0000895DC01262F14968D919C911597892BD3
:1029E00059F01496ED91FC91159716966D917C9186
:1029F0001797822F099508959096ED91FC919197E4
:102A0000CD0109950895FC0122A133A1F901099591
:102A10000895FC014FB7F894238534858FEF9FEF1D
:102A2000948783874FBFC9010895FC0183859485EE
:102A30008F5F9F4F29F4862F90E0948783870895B6
:102A400080858460808785EF0E9442110895DC01B3
:102A500019968D919C911A970296FC0125913491BB
:102A6000CD01F90109950895CF93DF93EC01888595
:102A70008E7F8887E88DF98D309721F08A8D9B8D28
:102A80006FEF0995E985FA853896259134912115DE
:102A9000310519F0CE01F9010995DF91CF91089523
:102AA000CF93DF93EC01888581608887E985FA857B
:102AB0003A96259134912115310519F0CE01F9018D
:102AC0000995E88DF98D309721F08A8D9B8D60E016
:102AD0000995DF91CF910895EF92FF920F931F9385
:102AE000CF93DF938C017B01EA010BC0D7016D917D
:102AF0007D01D8015C96ED91FC915D97C801099527
:102B00002197209799F7DF91CF911F910F91FF9017
:102B1000EF9008951F93FC01162F248D358DF90138
:102B20000995812F1F910895FC01268D378DF9019C
:102B3000099508951F931FB7F8940E9450151FBF61
:102B40001F9108950F931F93CF93DF93062FEC01EE
:102B500002C00E944517888580FFFBCF1FB7F894FD
:102B6000CE010E943415CE01602F0E9427151FBF91
:102B7000DF91CF911F910F9108952F923F924F9225
:102B80005F926F927F928F929F92AF92BF92CF92FD
:102B9000DF92EF92FF920F931F93DF93CF9300D0BA
:102BA00000D0CDB7DEB73C018FEC97E10E947613E1
:102BB0009A838983AA24AA94BA2CE3C0D101EE2473
:102BC000FF2420E030E01C821B82C9018A0D9B1D7E
:102BD0008F5F9F4F11F490E201C09C91892F815625
:102BE0008A3110F4905203C0903208F490E2FB0155
:102BF000E20FF31F849187FD32C0833239F49134A0
:102C000000F19B3500F53C832B8324C08F35B9F44C
:102C10009923E9F09032D9F09C32C9F09E32B9F094
:102C20009F33A9F0973299F0913289F09A3379F075
:102C30009F3269F021503040EE24EA9410C088237E
:102C400071F0992361F0891751F49F2D03C09F2DD6
:102C5000EE24EA942F5F3F4F1196F92EB6CFC2169D
:102C6000D3064CF4AB01420F531FFA01849187FF46
:102C700002C0690105C0E52CF42C9C828B82A8015E
:102C8000FB01E20FF31F2F5F3F4F849131968823A2
:102C9000D1F7620F731F5E2C4F2C8B809C808A01B2
:102CA000FB018491882309F089CFFFEF5F1619F4A7
:102CB0000894C108D108C114D10461F482E89DE0F0
:102CC0000E949913C3018A0D9B1D0E947F170E94C9
:102CD000951365C01801EE24FF24F10184918F77CC
:102CE00031F4E114F10409F43FC067013DC08332BF
:102CF00009F034C00894211C311CF101849108941E
:102D000021083108882311F474012AC040E050E002
:102D10001DC0841599F49A012F56324FF901849100
:102D200087FF0CC004C08F770E948313F801849141
:102D30008F010F5F1F4F8823B1F712C04F5F5F4FA6
:102D4000FB0184916F5F7F4F8823C1F7BA01605701
:102D5000724FFB0184918823E1F602C00E94831325
:102D60000894211C311CB9CFAC0CBD1CFFEFAF1671
:102D7000FFEFBF0631F0F301EA0DFB1D80818823D0
:102D800071F0552444248824992400E010E060E97F
:102D90007DE0CC24DD2413012A0C3B1C81CF80E094
:102DA0000E94831389819A810E9476130F900F905D
:102DB0000F900F90CF91DF911F910F91FF90EF90A7
:102DC000DF90CF90BF90AF909F908F907F906F904B
:102DD0005F904F903F902F900895FC018FB7F8942B
:102DE000309719F420E030E002C0248135818FBF94
:102DF000C90108950F931F9300E010E00E9403178C
:102E00001F910F9108958F929F92AF92BF92CF9290
:102E1000DF92EF92FF920F931F93CF93DF936B019B
:102E20007C0149015A01E8010E94C30D6C197D091A
:102E30008E099F09681579058A059B0568F00115BB
:102E4000110541F0681979098A099B09688379831A
:102E50008A839B838FEF0CC00115110541F0861A00
:102E6000970AA80AB90A88829982AA82BB8280E05E
:102E7000DF91CF911F910F91FF90EF90DF90CF9056
:102E8000BF90AF909F908F9008958FB77894000077
:102E90000000000000000000000000008FBF089547
:102EA000CF93DF939C010097F9F0FC014591549179
:102EB000CA010296FC01A591B491FA01C591D49181
:102EC0002E5F3F4FF90194913FB7F8948C91292FD1
:102ED000209582238C93662319F08881892B02C068
:102EE0008881822388833FBFDF91CF910895662335
:102EF00019F00E94101808950E94EB170895CF93BF
:102F0000DF93EC01009721F406C021960E94831301
:102F100088818823D1F7DF91CF910895E0919E01B8
:102F2000F0919F01309779F0E551FD4F10828BEEC3
:102F300092E00E9434188AE991E00E94B210109247
:102F4000A1011092A00108950F931F93DF93CF93D7
:102F50000F92CDB7DEB700919201109193018AE9EB
:102F600091E00E94BB100817190748F00E948E17C5
:102F700006C08AE991E069810E94141103C08E01A4
:102F80000F5F1F4F8EE891E0B8010E94CC1088239C
:102F900081F70F90CF91DF911F910F9108951F93AB
:102FA000182F813230F08EE891E00E940C118823B6
:102FB00049F00E94A417103228F40E94A4170E941E
:102FC0008E1705C08EE891E0612F0E941411812FA9
:102FD00090E01F910895CF93DF939C010097E9F053
:102FE000FC0185919491FC01A591B4910296FC019C
:102FF000C591D4912E5F3F4FF9012491888182239E
:1030000049F09FB7F8948C91209582238C939FBFB1
:10301000000003C087EF0E944211DF91CF91089515
:10302000CF93DF939C010097E1F0FC01859194918F
:10303000FC01A591B4910296FC01C591D4912E5F3B
:103040003F4FF90124918881822341F09FB7F89482
:103050008C91822B8C939FBF000003C087EF0E944E
:103060004211DF91CF9108959F92AF92BF92CF927C
:10307000DF92EF92FF920F931F93CF93DF938C0118
:1030800090E1B92E60E070E0EE24FF2499249A9438
:1030900080E3A82EB9C0892F81548A3108F4905E4C
:1030A000F901E40FF51FE4919E1741F44F5F5F4F64
:1030B000F801E40FF51F9081992369F7F901E40FF6
:1030C000F51F849187FF06C0C417D50718F46F0158
:1030D000BA2F01C0AE012F5F3F4F21503040F901A0
:1030E00084912F5F3F4F8823B1F7AF5FEA01F90169
:1030F0008491882319F040E050E0DACFC114D10464
:1031000051F48FEC96E10E949913C8010E947F1739
:103110000E94951360C0EB2FF0E0E058F94E9491B7
:10312000F801EC0FFD1FE0818E2F8053DB01A554C9
:10313000BC4F8A3048F4F0E0E957F94EE491EC9343
:1031400011969C93219603C09C9211961C929033E9
:1031500091F09B1581F06115710569F0DB01A554B3
:10316000BC4F8C9187FD07C0FD0132978083FD0124
:103170003197A08215C0F801EC0FFD1F31978081B7
:103180008062803269F46115710511F480E104C038
:10319000FB01E754FC4F8081FB01E554FC4F808329
:1031A000D701A55CBC4F40E050E007C08F778D93FE
:1031B0000894E11CF11C4F5F5F4FF601E40FF51F0F
:1031C0008491882399F7F1E7EF16F10430F080EC51
:1031D00096E10E94991380E051C0433051057CF084
:1031E000FB01E554FC4F20E030E080818283818147
:1031F00083832E5F3F4F329642175307B4F7640F15
:10320000751F0C0F1D1FB92EF8018081882349F00E
:10321000A0E0B0E0CC24DD242CE435E1C0E0D0E037
:1032200066CFF701E55CFC4F2AE72083C7010196D2
:10323000FC01E55CFC4F20830196FC01E55CFC4F42
:1032400020830196FC01E55CFC4F20830196F70189
:10325000E15CFC4F02C01192019680389105D8F3D1
:10326000FB01E554FC4F8FEF05C0808311826E5F38
:103270007F4F329660387105C0F30CC0DF91CF915B
:103280001F910F91FF90EF90DF90CF90BF90AF9084
:103290009F9008958BE393E06BEB73E00E94BB0E6D
:1032A0008FEFECCFABE0B0E0E8E5F9E10C94921BD6
:1032B0005C014B017A01FC0117821682838181FD3A
:1032C00008C06FEF7FEF08C142E050E0E40EF51E4A
:1032D00004C03E010894611C711CF501D380F40107
:1032E000D3FC8591D3FE81914F01882309F4F1C06D
:1032F000853259F4D3FC6591D3FE61914F0165325B
:1033000019F0062F10E01BC085E290E02BC00023CF
:1033100009F4DFC08FE690E0602F70E00E94741A1D
:10332000892B39F4033211F4106103C00C3661F4B7
:103330001068F401D3FC0591D3FE01914F0117FFF2
:10334000E6CF002309F4C5C088E690E0602F70E066
:103350000E94741A892B51F044E050E0E40EF51EEF
:103360008FE390E0B5010E949C1AB7CF033629F095
:10337000033779F00335F1F40BC087010E5F1F4F5F
:10338000F70180819181B5010E949C1A7801A5CF37
:103390001160F701C080D18004C090E0B5010E94A7
:1033A0009C1AF60110FD859110FF81916F01882311
:1033B000A1F78ACF043611F0093639F517FF08C096
:1033C000F701208131814281538184E090E00AC07D
:1033D000F701808191819C01442737FD4095542F4E
:1033E00082E090E0E80EF91E1F7E57FF08C050955E
:1033F0004095309521953F4F4F4F5F4F1064CA0164
:10340000B901A3012AE030E034C00037A9F0013748
:1034100030F40835B1F00F3609F05BC006C005374F
:1034200039F0083709F055C008C028E030E00CC07A
:103430001F7E2AE030E008C01061146220E130E015
:1034400003C0146020E132E017FF08C0F70160817B
:1034500071818281938144E050E008C0F70180814E
:103460009181BC0180E090E042E050E0E40EF51E66
:10347000A3010E94C81AD82ED618012F10E006FF0B
:1034800005C08DE290E0B5010E949C1A04FF15C0B2
:10349000FE01ED0DF11D8081803379F080E390E035
:1034A000B5010E949C1A02FF08C000721070C8018A
:1034B000885A9F4FB5010E949C1ADA94F301ED0DD2
:1034C000F11D808190E0B5010E949C1ADD20A9F7D2
:1034D00004CFF50166817781CB012B96EEE00C9449
:1034E000AE1BF8940C94C51BFC010590061621F048
:1034F0000020D9F7C00108953197CF010895A0E0C9
:10350000B0E0E5E8FAE10C949C1B0F8118859E0160
:10351000255F3F4FF801838188608383C8016985F7
:103520007A85A9010E945219F8012381277F2383FC
:103530002096E4E00C94B81B0F931F93CF93DF9376
:103540008C01EB018B8181FF1BC082FF0DC02E819E
:103550003F818C819D812817390764F4E881F981C6
:103560000193F983E88306C0E885F985802F0995E2
:10357000892B31F48E819F8101969F838E8302C0B7
:103580000FEF1FEFC801DF91CF911F910F910895A9
:10359000FA01AA27283051F1203181F1E8946F9384
:1035A0006E7F6E5F7F4F8F4F9F4FAF4FB1E03ED02A
:1035B000B4E03CD0670F781F891F9A1FA11D680FC8
:1035C000791F8A1F911DA11D6A0F711D811D911DFB
:1035D000A11D20D009F468943F912AE0269F112470
:1035E0003019305D3193DEF6CF010895462F4770D4
:1035F000405D4193B3E00FD0C9F7F6CF462F4F702F
:10360000405D4A3318F0495D31FD4052419302D08C
:10361000A9F7EACFB4E0A695979587957795679532
:10362000BA95C9F700976105710508959B01AC0132
:103630000A2E06945795479537952795BA95C9F759
:10364000620F731F841F951FA01D0895629FD001F4
:10365000739FF001829FE00DF11D649FE00DF11D4D
:10366000929FF00D839FF00D749FF00D659FF00DFC
:103670009927729FB00DE11DF91F639FB00DE11DE9
:10368000F91FBD01CF0111240895AA1BBB1B51E1F5
:1036900007C0AA1FBB1FA617B70710F0A61BB70BC2
:1036A000881F991F5A95A9F780959095BC01CD0167
:1036B000089597FB092E07260AD077FD04D0E5DF91
:1036C00006D000201AF4709561957F4F0895F6F7A3
:1036D000909581959F4F0895A1E21A2EAA1BBB1BBE
:1036E000FD010DC0AA1FBB1FEE1FFF1FA217B307CE
:1036F000E407F50720F0A21BB30BE40BF50B661FE4
:10370000771F881F991F1A9469F7609570958095A7
:1037100090959B01AC01BD01CF0108952F923F927E
:103720004F925F926F927F928F929F92AF92BF92D1
:10373000CF92DF92EF92FF920F931F93CF93DF937D
:10374000CDB7DEB7CA1BDB0B0FB6F894DEBF0FBEDA
:10375000CDBF09942A88398848885F846E847D8427
:103760008C849B84AA84B984C884DF80EE80FD8029
:103770000C811B81AA81B981CE0FD11D0FB6F8949F
:0E378000DEBF0FBECDBFED010895F894FFCF60
:10378E001D0024F400803E10000000000000000028
:10379E000000760DFFFF03030603370D3C0D0000FE
:1037AE000000000000A2159A1515150915C000C1DC
:1037BE0000C400C500C60000000206000300A701F9
:1037CE008000000000000000000027022000000022
:1037DE000000000000000000000200000000A00C2D
:1037EE00000000000000000200000000A00C00001D
:1037FE0000000307C30214000000000000000000D8
:10380E0087023C0000000000000000007413270334
:10381E0014000000000000000000EB023C0000005D
:06382E0000000000000094
:00000001FF
